:020000040800F2
:100000000000032051090008A1090008A109000807
:10001000A1090008A1090008A109000800000000CA
:10002000000000000000000000000000A10900081E
:10003000A109000800000000A1090008A1090008AA
:10004000A1090008A1090008A1090008A1090008E8
:10005000A1090008A1090008A1090008A1090008D8
:10006000A1090008A1090008A1090008A1090008C8
:10007000A1090008A1090008A1090008A1090008B8
:10008000A1090008A1090008A1090008A1090008A8
:10009000A1090008A1090008A1090008A109000898
:1000A000A1090008A1090008A1090008A109000888
:1000B000A1090008A1090008A1090008A109000878
:1000C000A1090008A1090008A1090008A109000868
:1000D000A1090008A1090008A1090008A109000858
:1000E000A1090008A1090008A1090008A109000848
:1000F000A1090008A1090008A1090008A109000838
:10010000A1090008A1090008A1090008A109000827
:10011000A1090008A1090008A1090008A109000817
:10012000A1090008A1090008A1090008A109000807
:10013000A1090008A1090008A1090008A1090008F7
:10014000A1090008A1090008A1090008A1090008E7
:10015000A1090008A1090008A1090008A1090008D7
:10016000A1090008A1090008A1090008A1090008C7
:10017000A1090008A1090008A10900080000000069
:10018000A1090008A1090008A1090008A1090008A7
:10019000A1090008A1090008A1090008A109000897
:1001A000A1090008A1090008A109000810B5054C23
:1001B000237833B9044B13B10448AFF30080012313
:1001C000237010BD5004002000000000040B000844
:1001D000084B10B51BB108480849AFF30080084828
:1001E000036803B910BD074B002BFBD0BDE81040DE
:1001F000184700BF00000000040B00085404002052
:100200004C0400200000000080B400AF124A124BE2
:100210001B6843F0010313600F4B00229A600E4AE3
:100220000D4B1B6823F0847323F4803313600A4B57
:100230000A4A5A60084A084B1B6823F4802313605B
:10024000054B0022DA60064B4FF000629A60BD4613
:100250005DF8047B704700BF003802401030002476
:1002600000ED00E080B487B000AF00233B610023C5
:100270007B610223FB600023BB6002237B60324B67
:100280009B6803F00C033B613B69042B07D0082BF0
:1002900009D0002B3FD12D4B2D4A1A603FE02B4B4C
:1002A0002C4A1A603BE0284B5B6803F480039B0DEB
:1002B000BB60254B5B6803F03F037B60BB68002B92
:1002C0000DD0244A7B68B2FBF3F21F4B596847F606
:1002D000C0730B409B0903FB02F37B610CE01C4ADB
:1002E0007B68B2FBF3F2184B596847F6C0730B40BA
:1002F0009B0903FB02F37B61134B5B6803F4403300
:100300001B0C01335B00FB607A69FB68B2FBF3F303
:100310000E4A136003E00D4B0D4A1A6000BF0A4BF2
:100320009B6803F0F0031B090B4AD35CDBB23B6113
:10033000064B1A683B6922FA03F3044A13601C3720
:10034000BD465DF8047B7047003802400000002085
:100350000024F40040787D010400002080B487B0C0
:1003600000AF786039600023FB600023BB6000238E
:100370003B6100237B616BE17B69012202FA03F39D
:10038000FB603B681A68FB681340BB60BA68FB6897
:100390009A4240F05A813B685B68022B03D03B686D
:1003A0005B68122B22D17B69DA087B68083253F82C
:1003B00022303B617B6903F007039B001A460F2341
:1003C0009340DB433A6913403B613B681B697A69A0
:1003D00002F00702920093403A6913433B617B6944
:1003E000DA087B680832396943F822107B681B6899
:1003F0003B617B695B001A4603239340DB433A6908
:1004000013403B613B685B6803F003037A69520069
:1004100093403A6913433B617B683A691A603B68D1
:100420005B68012B0BD03B685B68022B07D03B68F5
:100430005B68112B03D03B685B68122B2FD17B6864
:100440009B683B617B695B001A4603239340DB4357
:100450003A6913403B613B68DB687A69520093401C
:100460003A6913433B617B683A699A607B685B68D1
:100470003B617B69012202FA03F3DB433A691340D3
:100480003B613B685B6803F010031A097B6902FA61
:1004900003F33A6913433B617B683A695A607B68AE
:1004A000DB683B617B695B001A4603239340DB43B7
:1004B0003A6913403B613B689B687A6952009340FC
:1004C0003A6913433B617B683A69DA603B685B6871
:1004D00003F08053002B00F0B880624A614B5B6CE4
:1004E00043F480435364604A7B699B08023352F8AB
:1004F00023303B617B6903F003039B001A460F2303
:100500009340DB433A6913403B617B68574A93420F
:1005100037D07B68564A934231D07B68554A934224
:100520002BD07B68544A934225D07B68534A934230
:100530001FD07B68524A934219D07B68514A93423C
:1005400013D07B68504A93420DD07B684F4A934248
:1005500007D07B684E4A934201D1092312E00A2357
:1005600010E008230EE007230CE006230AE0052331
:1005700008E0042306E0032304E0022302E0012351
:1005800000E000237A6902F00302920093403A6986
:1005900013433B6134497B699B0802333A6941F854
:1005A00023203C4B1B683B61BB68DB433A6913402B
:1005B0003B613B685B6803F48033002B03D03A69EE
:1005C000BB6813433B61334A3B691360314B5B6843
:1005D0003B61BB68DB433A6913403B613B685B6846
:1005E00003F40033002B03D03A69BB6813433B612B
:1005F000284A3B695360274B9B683B61BB68DB43E0
:100600003A6913403B613B685B6803F48013002B3D
:1006100003D03A69BB6813433B611E4A3B69936050
:100620001C4BDB683B61BB68DB433A6913403B61B1
:100630003B685B6803F40013002B03D03A69BB6886
:1006400013433B61134A3B69D3607B6901337B6190
:100650007B690F2B7FF690AE1C37BD465DF8047B9F
:10066000704700BF003802400038014000000240DF
:100670000004024000080240000C0240001002404A
:100680000014024000180240001C024000200240FA
:1006900000240240003C014080B487B000AF786085
:1006A000396000233B610023FB600023BB60002313
:1006B0007B6182E07B69012202FA03F33B613A68C5
:1006C0003B691340FB60FA683B699A4272D17B68D0
:1006D0001A687B695B00194603238B40DB431A4091
:1006E0007B681A607B69DA087B69D9087B68083106
:1006F00053F821107B6903F007039B0018460F2372
:100700008340DB4319407B68083243F822107B6842
:100710009A687B695B00194603238B40DB431A40D0
:100720007B689A607B685A687B69012101FA03F350
:10073000DB431A407B685A607B68DA687B695B0040
:10074000194603238B40DB431A407B68DA607B69E0
:1007500003F003039B001A460F239340BB601B4822
:100760007B699B0819497A699208023251F8221074
:10077000BA68D2430A40023340F823201449144B8C
:100780001A68FB68DB4313400B601149104B5A6831
:10079000FB68DB4313404B600D490D4B9A68FB68C7
:1007A000DB4313408B600A49094BDA68FB68DB4383
:1007B0001340CB607B6901337B617B690F2B7FF634
:1007C00079AF1C37BD465DF8047B704700380140A7
:1007D000003C014080B485B000AF78600B467B8060
:1007E0007B681A697B881340002B02D00123FB73BE
:1007F00001E00023FB73FB7B18461437BD465DF810
:10080000047B704780B483B000AF78600B467B8078
:1008100013467B707B78002B03D07B687A881A8321
:1008200002E07B687A885A830C37BD465DF8047B0A
:10083000704700BF80B483B000AF78600B467B8008
:100840007B685A697B885A407B685A610C37BD4681
:100850005DF8047B704700BF80B485B000AF78605E
:100860000B467B804FF48033FB607A88FB68134330
:10087000FB60FA687B68DA617A887B68DA61FA681B
:100880007B68DA617B68DB69FB607B68DB6903F4AA
:100890008033002B01D0002300E0012318461437D9
:1008A000BD465DF8047B704780B582B000AF03465B
:1008B000FB80084B5A69FB881340002B06D0054A81
:1008C000FB885361FB88184600F006F80837BD46E0
:1008D00080BD00BF003C014080B483B000AF034640
:1008E000FB800C37BD465DF8047B704780B586B051
:1008F00000AF144A134B1B6B43F0400313634FF4D8
:10090000C0437B600123BB600023FB6002233B618B
:100910003B1D0D481946FFF721FD0B484FF40051D0
:10092000FFF788FF08484FF4C041FFF783FF00231B
:100930003B6002E03B6801333B603B68034A934203
:10094000F8DDEFE700380240001802407F1A060089
:10095000DFF834D0002103E00C4B5B5843500431E6
:100960000B480C4B42189A42F6D30B4A02E0002384
:1009700042F8043B094B9A42F9D3FFF745FC00F0DB
:1009800011F8FFF7B3FF704700000320040B0008C5
:100990000000002050040020500400206C040020BF
:1009A000FEE7000070B50F4E0F4D761BB61018BF56
:1009B000002405D0013455F8043B9847A642F9D1EC
:1009C0000A4E0B4D761B00F08DF8B61018BF0024B0
:1009D00006D0013455F8043B9847A642F9D170BDC2
:1009E00070BD00BF400400204004002048040020E7
:1009F00040040020024B13B1024800F005B87047D4
:100A000000000000150A00080146002002460346C7
:100A100000F016B838B5084B084DED1AAC1018BFE9
:100A2000ED1805D0013C55F8043D9847002CF9D14C
:100A3000BDE8384000F05CB8480400204C040020B9
:100A40002DE9F047254C2568D5F8484106468846EB
:100A500092469946CCB360681F2818DC431C7EB1CF
:100A600004EB80050121C5F888A0D4F8887101FA4B
:100A700000F21743022EC4F88871C5F808911ED001
:100A80000230636044F820800020BDE8F087144BFA
:100A900003B34FF4C870AFF300800446D0B1D5F86B
:100AA0004831002780E88800C5F8484138460123CE
:100AB000C4F88871C4F88C71002EE1D0D0E7D4F866
:100AC0008C110A43C4F88C21DAE705F5A674C5F841
:100AD0004841C0E74FF0FF30BDE8F087000B000849
:100AE00000000000F8B500BFF8BC08BC9E46704787
:100AF000F8B500BFF8BC08BC9E4670474300000034
:040B000018000020B9
:100B04000024F400000000000000000001020304BF
:100B1400060708090000000000000000040300208C
:100B24006C030020D403002000000000000000003B
:100B340000000000000000000000000000000000B1
:100B4400000000000000000000000000FC0A000893
:100B54000000000000000000000000000000000091
:100B64000000000000000000000000000000000081
:100B74000000000000000000000000000000000071
:100B84000000000000000000000000000000000061
:100B94000000000000000000000000000000000051
:100BA4000000000000000000000000000000000041
:100BB4000000000000000000000000000000000031
:100BC40001000000000000000E33CDAB34126DE6CE
:100BD400ECDE05000B000000000000000000000037
:100BE4000000000000000000000000000000000001
:100BF40000000000000000000000000000000000F1
:100C040000000000000000000000000000000000E0
:100C140000000000000000000000000000000000D0
:100F4400F5090008D1010008AD0100080000000007
:0400000508000000EF
:00000001FF
